:060000000A128A11EE2F26
:10001600F800F401F5017008F200F3017208F60029
:100026007308F700781C182819281F287608F40783
:100036000318F50A7708F50701300310F60DF70DDA
:10004600FF3E031D20280310F80C7808031D2C28FA
:100056002D2815287508F1007408F0000800F40131
:10006600F50170087104031939283A287128F60138
:10007600F60A482801300310F00DF10DFF3E031D6E
:100086003E280130FF007F08F607F11F4B284C2859
:100096003D2801300310F40DF50DFF3E031D4D28DC
:1000A60071087302031D592870087202031C5C282C
:1000B6005D2864287008F2027108031CF303F3023A
:1000C600741401300310F10CF00CFF3E031D65287B
:1000D6000130F602031D702871284C287508F100BE
:1000E6007408F00008008312031351088039DB00FE
:1000F6005108D2005207E200D01F822883288428A4
:10010600621462080319882889289928620A031D3F
:100116008D288E2896280030D1000030D00000307F
:10012600CF000030CE00D017D101A1280030D10079
:100136000030D0000030CF000030CE004D088039AE
:10014600FF007F08DB064D08D2005207E300CC1FF4
:10015600AD28AE28AF28631463080319B328B42862
:10016600C428630A031DB828B928C1280030CD0069
:100176000030CC000030CB000030CA00CC17CD01D7
:10018600CC280030CD000030CC000030CB00003051
:10019600CA004D084C044B044A04031DD328D42836
:1001A600ED280030D1000030D0000030CF00003004
:1001B600CE008030D0047F30D1045B08FF007F087A
:1001C600D1045108CD005008CC004F08CB004E0892
:1001D600CA00442A6208031DF128F228FB280030D1
:1001E600CD000030CC000030CB000030CA00442ADD
:1001F6006208D200D3015308D50063085202D40026
:10020600031CD50354087F3EDC0055080318013E45
:10021600003EDD005108DA005008D9004F08D8002A
:100226004E08D7000030D1000030D0000030CF009B
:100236000030CE000030E1000030E0000030DF008A
:100246000030DE00E3017129630803192B292C29EC
:100256004C290130D2000310D70DD80DD90DDA0D77
:10026600D20B2E290130D2000310CE0DCF0DD00DAA
:10027600D10DD20B3729E11F4129422943294E14BA
:100286000130D2000310DE0DDF0DE00DE10DD20BC3
:1002960045294D085A02031D5A294C085902031DC7
:1002A6005A294B085802031D5A294A085702031CAB
:1002B6005D295E296D2961174A08D7024B08031C80
:1002C6004B0FD8024C08031C4C0FD9024D08031CD7
:1002D6004D0FDA020130FF007F08E3071A30630290
:1002E600031C7629772927295A08590458045704E4
:1002F60003197E297F299E295E149E290130D2008A
:100306000310CE0DCF0DD00DD10DD20B8329E11FD9
:100316008D298E298F294E140130D2000310DE0D4F
:10032600DF0DE00DE10DD20B9129FF30DC0703183C
:10033600DD0AFF30DD07D01FA129A2298129E301AB
:10034600E11FA629A729C329FF305E05D200FF3089
:100356005F05D300FF306005D4007F306105D5000E
:1003660055085404530452040319BA29BB29BE295B
:10037600E301E30AC3294E1CC129C229C329BB29AB
:1003860063080319C729C829F9290130CE070030A7
:1003960003180130CF07003003180130D0070030B2
:1003A60003180130D107511CD929DA29F9294E0839
:1003B600D2004F08D3005008D4005108D5000130B0
:1003C600D600550DD50CD40CD30CD20CD60BE42983
:1003D6005508D1005408D0005308CF005208CE006B
:1003E6000130DC070318DD0A0030DD075D08803ABE
:1003F600FF0080307F02031D022AFF305C02031CCF
:10040600052A062A142AFF3083120313DC00003063
:10041600DD000030D1000030D0000030CF000030C9
:10042600CE00831203135D08803AFF0080307F02FE
:10043600031D1F2A01305C020318222A232A302AB0
:1004460083120313DC01DD010030D1000030D0003F
:100456000030CF000030CE00DB01831203135C08AE
:10046600E200621C372A382A3A2AD0173E2A7F3001
:10047600FF007F08D0056208D2000310520CD1009D
:10048600E028080073088039F80073088312031304
:10049600A0002007FA00F21F512A522A532A7A1482
:1004A6007A080319572A582A682A7A0A031D5C2AE9
:1004B6005D2A652A0030F3000030F2000030F100BA
:1004C6000030F000F217F301702A0030F30000301C
:1004D600F2000030F1000030F00077088039F900B2
:1004E600790878060319782A792A7A2A78177708F4
:1004F600A0002007F900F61F812A822A832A791490
:1005060079080319872A882A982A790A031D8C2ACA
:100516008D2A952A0030F7000030F6000030F500ED
:100526000030F400F617F701A02A0030F70000307B
:10053600F6000030F5000030F4007A08790203185E
:10054600A52AA62ACC2A781FA92AAA2AAE2A80304A
:10055600FF007F08F8067A08FB007908FA007B0896
:10056600F9007008FB007408F0007B08F4007108BD
:10057600FB007508F1007B08F5007208FB007608A1
:10058600F2007B08F6007308FB007708F3007B088F
:10059600F700FB017908A000A1012108A3007A0851
:1005A6002002A200031CA3032308803AFF00803028
:1005B6007F02031DE02A1A302202031CE32AE42AE2
:1005C6001D2B7308720471047004031DEB2AED2AB7
:1005D6000130EE2A0030FB000030F3000030F2005C
:1005E6000030F1000030F0007908FA00232B7B1C64
:1005F600FD2AFE2A072B7B0883120313A000031093
:10060600200C0138FB00092B0310FB0C701C0C2B73
:100616000D2B0E2BFB17013083120313A000730D55
:10062600F30CF20CF10CF00CA00B122B0130FF00B6
:100636007F08FA0779087A02031C222B232BFA2A51
:10064600781B262B272B742B7A08031D2B2B2C2B80
:10065600352B0030F3000030F2000030F10000309E
:10066600F000A82C7408F007750803110318013E62
:1006760003193E2BF107760803110318013E0319EF
:10068600452BF207770803110318013E03194C2B7B
:10069600F307731C4F2B502B2C2C7B1C532B542BEA
:1006A6005D2B7B0883120313A0000310200C013876
:1006B600FB005F2B0310FB0C701C622B632B642B5F
:1006C600FB17013083120313A000730DF30CF20C19
:1006D600F10CF00CA00B682B0130FF007F08FA0725
:1006E6002C2C7308803AFF007708803A7F02031D9E
:1006F600862B76087202031D862B75087102031D70
:10070600862B740870020318892B8A2BE42BFF3082
:1007160083120313A000FF30A100FF30A200FF30B8
:10072600A3007408A4007508A5007608A60077083B
:10073600A7007008A4027108031C710FA32BA42B39
:10074600A5027208031C720FA92BAA2BA602730816
:10075600031C730FAF2BB02BA7022408A007250894
:100766000318250FB72BB82BA10726080318260F49
:10077600BD2BBE2BA20727080318270AA3072308A9
:10078600F3002208F2002108F1002008F000803072
:10079600FF007F08F806FB09FB0A7B08031DD42B24
:1007A600D52BF22B0130F007003003180130F1078A
:1007B600003003180130F207003003180130F30748
:1007C600F22B7408F0027508031C750FF102760807
:1007D600031C760FF2027708031C770FF3027308E7
:1007E600720471047004031DF92BFA2B282C7B0864
:1007F600031DFE2BFF2B282C0030F3000030F200E7
:100806000030F1000030F000A82C013083120313F1
:10081600A0000310F00DF10DF20DF30DA00B0C2C42
:10082600FB1F162C172C182C70147B1C1B2C1C2C35
:100836001F2C0314FB0D212C0310FB0D7A08031942
:10084600252C262C282C0130FA02F21F2B2C2C2CBE
:10085600082CF901FB1F302C312C3F2C7B087F39EB
:100866000319362C372C3A2CF901F90A3F2C701C47
:100876003D2C3E2C3F2C372C79080319432C442C55
:100886007A2C0130F007003003180130F1070030F0
:1008960003180130F207003003180130F307731C08
:1008A600552C562C7A2C700883120313A00071085D
:1008B600A1007208A2007308A3000130A400230D52
:1008C600A30CA20CA10CA00CA40B622C2308F30011
:1008D6002208F2002108F1002008F0007A0A031924
:1008E600752C762C7A2C0130FF007F08FA077A0ADD
:1008F60003197E2C7F2C842C7A08031D832C842CD0
:10090600922C0030F3000030F2000030F10000308D
:10091600F0007A08031D902C912C922CF8017A1C79
:10092600952C962C982CF2179C2C7F30FF007F0874
:10093600F2057A0883120313A0000310200CF300BB
:10094600F81FA62CA72CA82CF31708008312031354
:1009560033088039BD003308B8003807C300B21F1A
:10096600B52CB62CB72C431443080319BB2CBC2C4E
:10097600CB2C430A031DC02CC12CC92C0030B3005C
:100986000030B2000030B1000030B000B217D32CF6
:100996000030B3000030B2000030B1000030B000CB
:1009A60037088039FF007F08BD063708B8003807CA
:1009B600C200B61FDF2CE02CE12C421442080319BA
:1009C600E52CE62CF52C420A031DEA2CEB2CF32C25
:1009D6000030B7000030B6000030B5000030B4007B
:1009E600B617FD2C0030B7000030B6000030B50059
:1009F6000030B40042080319012D022D072D4308CB
:100A0600031D062D072D102D0030B3000030B20057
:100A16000030B1000030B000ED2F3008F00036088D
:100A26000A128A110B200A128A1171088312031303
:100A3600C9007008C8004808B800B901BA01BB016E
:100A46003B08C1003A08C0003908BF003808BE009C
:100A56004908B800B901BA01BB013B08C7003A080A
:100A6600C6003908C5003808C4003108F00035084A
:100A76000A128A110B200A128A11710883120313B3
:100A8600C9007008C8004808B800B901BA01BB011E
:100A96003808BE07390803110318013E0319542DFF
:100AA600BF073A0803110318013E03195B2DC0075F
:100AB6003B0803110318013E0319622DC1074908BB
:100AC600B800B901BA01BB013808C40739080311D7
:100AD6000318013E0319702DC5073A0803110318C0
:100AE600013E0319772DC6073B0803110318013E83
:100AF60003197E2DC7073208F00034080A128A113E
:100B06000B200A128A11710883120313C900700898
:100B1600C8004808B800B901BA01BB013808BE07C9
:100B2600390803110318013E03199A2DBF073A0825
:100B360003110318013E0319A12DC0073B08031139
:100B46000318013E0319A82DC1074908B800B901C9
:100B5600BA01BB013808C407390803110318013E5E
:100B66000319B62DC5073A0803110318013E0319E8
:100B7600BD2DC6073B0803110318013E0319C42DFA
:100B8600C7070830B8000310BE0DBF0DC00DC10D5C
:100B9600B80BC62D3108F00034080A128A110B2052
:100BA6000A128A11710883120313C9007008C8005B
:100BB6004808B8004908B900BA01BB013808BE07A1
:100BC600390803110318013E0319EA2DBF073A0835
:100BD60003110318013E0319F12DC0073B08031149
:100BE6000318013E0319F82DC1073008F000350837
:100BF6000A128A110B200A128A1171088312031332
:100C0600C9007008C8004808B8004908B900BA0108
:100C1600BB013808BE07390803110318013E031942
:100C2600152EBF073A0803110318013E03191C2E9F
:100C3600C0073B0803110318013E0319232EC10701
:100C46000830B8000310BE0DBF0DC00DC10DB80BA6
:100C5600252E3008F00034080A128A110B200A12D9
:100C66008A11710883120313C9007008C800480866
:100C7600B8004908B900BA01BB013808BE073908EF
:100C860003110318013E0319492EBF073A08031141
:100C96000318013E0319502EC0073B080311031821
:100CA600013E0319572EC1073108F00036080A1213
:100CB6008A110B200A128A11710883120313C900C4
:100CC6007008C8004808B8004908B900BA01BB0155
:100CD6003808C407390803110318013E0319742E96
:100CE600C5073A0803110318013E03197B2EC607F0
:100CF6003B0803110318013E0319822EC707320869
:100D0600F00035080A128A110B200A128A1171089E
:100D160083120313C9007008C8004808B8004908C0
:100D2600B900BA01BB013808C40739080311031812
:100D3600013E03199F2EC5073A0803110318013E09
:100D46000319A62EC6073B0803110318013E031913
:100D5600AD2EC7073208F00036080A128A110B209A
:100D66000A128A11710883120313C9007008C80099
:100D76004808B8004908B900BA01BB010830031099
:100D8600B80DB90DBA0DBB0DFF3E031DC22E3808B6
:100D9600C407390803110318013E0319D32EC507EA
:100DA6003A0803110318013E0319DA2EC6073B0859
:100DB60003110318013E0319E12EC7073E08B800C8
:100DC6003F08B9004008BA004108BB0018300310BC
:100DD600BB0CBA0CB90CB80CFF3E031DEA2E380842
:100DE600C407390803110318013E0319FB2EC50772
:100DF6003A0803110318013E0319022FC6073B08E0
:100E060003110318013E0319092FC7070830B8005C
:100E16000310BE0DBF0DC00DC10DB80B0B2F43083F
:100E26004207B800B901B90D3808823EC800390832
:100E36000318013EFF3EC9003D2F0130B8000310E4
:100E4600C40DC50DC60DC70DB80B222FC11F2C2F03
:100E56002D2F2E2F44140130B8000310BE0DBF0DE8
:100E6600C00DC10DB80B302FFF30C8070318C90AD3
:100E7600FF30C907C61F402F412F202FC201C11FB7
:100E8600452F462F622FFF303E05B800FF303F0545
:100E9600B900FF304005BA007F304105BB003B0872
:100EA6003A04390438040319592F5A2F5D2FC20109
:100EB600C20A622F441C602F612F622F5A2F4208EC
:100EC6000319662F672F982F0130C40700300318C7
:100ED6000130C507003003180130C607003003187B
:100EE6000130C707471C782F792F982F4408B80080
:100EF6004508B9004608BA004708BB000130BC00E7
:100F06003B0DBB0CBA0CB90CB80CBC0B832F3B08C1
:100F1600C7003A08C6003908C5003808C4000130C1
:100F2600C8070318C90A0030C9074908803AFF00F4
:100F360080307F02031DA12FFF304802031CA42F1F
:100F4600A52FB02F7F3083120313C7008030C60051
:100F56000030C5000030C400E12F83120313490896
:100F6600803AFF0080307F02031DBB2F013048020C
:100F76000318BE2FBF2FCB2F003083120313C700D9
:100F86000030C6000030C5000030C400BD01E12FAE
:100F9600831203134808C300FF30C405FF30C5059C
:100FA6007F30C6050030C705431CDA2FDB2FDC2F48
:100FB600C6174308B8000310380CC7003D08FF00E9
:100FC6007F08C7044708B3004608B2004508B100C9
:100FD6004408B00008008313BC30FD000C30FE004E
:100FE6005630FF00B23084000A128A159C240A1279
:0A0FF6008A1183010A128A15702E79
:1018AC003F3406345B344F3466346D347D34073446
:1018BC007F346F340A128A1577240A128A150A1299
:1018CC008A156B240A128A150800831603138801E3
:1018DC000508C3398500831203130508C339850035
:1018EC000800831603139F174130831203139F00C4
:1018FC008030831603139F00831203131F140800F8
:10190C00831203131F151F198C2C8D2C892C1E0868
:10191C00F300831603131E08F2007308F10072081B
:10192C00F00008007E088A007F0882000A128A15DF
:10193C0098240A128A158000840A04087D0603196B
:10194C000034FF0A0319FE0A9C2C80308312031307
:10195C00AB062F08F3002E08F2002D08F1002C081E
:10196C00F0002B08F7002A08F6002908F5002808D3
:10197C00F4000A128A1145220A128A15730883127E
:10198C000313AB007208AA007108A9007008A80024
:10199C000800F300F401F40174087307F0007008F8
:1019AC008400831300088312031388000430F000B2
:1019BC00740AE22C0310F00DFF3E031DE02C050809
:1019CC00C339700485006430F1000030F20001303E
:1019DC00F1020030031CF203F202710A031DFA2C0F
:1019EC00720A031DFA2CFB2CED2C0130FF007F0832
:1019FC00F40704307402031C042D052DD22C0800AE
:101A0C007008710403190B2D0C2D3B2DF401F40AF5
:101A1C001A2D01300310F00DF10DFF3E031D102D9A
:101A2C000130FF007F08F407F11F1D2D1E2D0F2D17
:101A3C0071087302031D242D70087202031C272DDC
:101A4C00282D2E2D7008F2027108031CF303F302EB
:101A5C0001300310F10CF00CFF3E031D2F2D013053
:101A6C00F402031D3A2D3B2D1E2D7308F100720854
:101A7C00F00008000310831203134C0D4D0DD3001E
:101A8C005308031D4A2D4B2D542D0030CD00003032
:101A9C00CC000030CB000030CA00B72D4A08CE0075
:101AAC004B08CF004C08D0004D08D1001F3003105C
:101ABC00D10CD00CCF0CCE0CFF3E031D5D2D4E086F
:101ACC00D200CC17FF30CA05FF30CB05FF30CC0558
:101ADC000030CD059630D302D31F752D762D902D69
:101AEC005308803A973E03187C2D7D2D7E2D4B2D6F
:101AFC0001300310CD0CCC0CCB0CCA0CFF3E031DDB
:101B0C007F2D0130FF007F08D307031D8E2D8F2DF5
:101B1C007E2DA72D20305302031C952D962DA22D22
:101B2C004B2D0130CE000310CA0DCB0DCC0DCD0DBD
:101B3C00CE0B992D0130D3025308031DA62DA72DD2
:101B4C00972D52080319AB2DAC2DB72DCA09CB0913
:101B5C00CC09CD09CA0A0319CB0A0319CC0A0319FB
:101B6C00CD0A0800F80078080319BD2DBE2DD22D22
:101B7C00F31FC12DC22DD22D7009FA007109FB0083
:101B8C007209FC007309FD00FA0A0319FB0A031918
:101B9C00FC0A0319FD0ADA2D7308FD007208FC001B
:101BAC007108FB007008FA00730872047104700469
:101BBC00031DE12DE22DEB2D0030F3000030F2007F
:101BCC000030F1000030F0006F2E9630F900FB2D44
:101BDC000130FF007F08F90701300310FD0CFC0CED
:101BEC00FB0CFA0CFF3E031DF32DFE307D05031D8F
:101BFC00002E012EEE2D1D2E0130FF007F08F9075F
:101C0C000130FA07003003180130FB0700300318CD
:101C1C000130FC07003003180130FD0701300310C0
:101C2C00FD0CFC0CFB0CFA0CFF3E031D152EFF30BB
:101C3C007D05031D222E232E022E2F2E0130F9029C
:101C4C000130F4000310FA0DFB0DFC0DFD0DF40B2F
:101C5C00282EFC1B322E332E392E0230790203181B
:101C6C00382E392E242E79183C2E3D2E452EFF3041
:101C7C00FA05FF30FB057F30FC05FF30FD05031036
:101C8C00F90C7908F400F501F601F701183003108E
:101C9C00F40DF50DF60DF70DFF3E031D4D2E7408DA
:101CAC00FA047508FB047608FC047708FD04780830
:101CBC000319612E622E672EF31F652E662E672E7A
:101CCC00FD177D08F3007C08F2007B08F1007A0810
:101CDC00F00008000A128A1560240A128A150A12EA
:101CEC008A1586240A128A15710883160313A50017
:101CFC007008A400443083120313CD007F30CC0055
:101D0C00C030CB000030CA004030B300A030B2006D
:101D1C000030B1000030B000831603132408F0002B
:101D2C002508F100F201F30100300A128A15B825DA
:101D3C000A128A15730883120313B7007208B600CF
:101D4C007108B5007008B4000A128A11A9240A128D
:101D5C008A15831203133308D1003208D0003108DE
:101D6C00CF003008CE000A128A1176200A128A158A
:101D7C00831203134D0883160313A300831203135A
:101D8C004C0883160313A200831203134B0883160B
:101D9C000313A100831203134A0883160313A00034
:101DAC00413083120313B300A030B2000030B100F5
:101DBC000030B00083160313230883120313B700FB
:101DCC0083160313220883120313B600831603131E
:101DDC00210883120313B500831603132008831202
:101DEC000313B4000A128A11A9240A128A15831249
:101DFC000313330883160313AD0083120313320845
:101E0C0083160313AC0083120313310883160313D8
:101E1C00AB0083120313300883160313AA002D089A
:101E2C0083120313CD00831603132C0883120313A0
:101E3C00CC00831603132B0883120313CB008316D9
:101E4C0003132A0883120313CA000A128A154025A9
:101E5C000A128A15831203134B0883160313B1005D
:101E6C00831203134A0883160313B0002D08831240
:101E7C000313AF00831603132C0883120313AE0055
:101E8C00831603132B0883120313AD00831603135D
:101E9C002A0883120313AC00831603133008F000D6
:101EAC003108F100F201F30100300A128A15B8254D
:101EBC000A128A15730883120313AB007208AA0066
:101ECC007108A9007008A8000A128A15AB240A121E
:101EDC008A15831203132B08B7002A08B6002908A9
:101EEC00B5002808B4004230B300C830B20000304E
:101EFC00B1000030B0000A128A11A9240A128A1506
:101F0C00831203133308CD003208CC003108CB0008
:101F1C003008CA000A128A1540250A128A15831243
:101F2C0003134B0883160313AF00831203134A08E1
:101F3C0083160313AE000A30F0000030F1003108B4
:101F4C00F3003008F2000A128A1132200A128A15A4
:101F5C007008B23E84008313000883160313A60096
:101F6C000A30F0000030F1003108F3003008F200C4
:101F7C000A128A1506250A128A157008B23E8400C8
:101F8C0083130008803883160313A7000A30F0006F
:101F9C000030F1002F08F3002E08F2000A128A110B
:101FAC0032200A128A157008B23E8400831300088E
:101FBC0083160313A8000A30F0000030F1002F083C
:101FCC00F3002E08F2000A128A1506250A128A1549
:101FDC007008B23E84008313000883160313A90013
:101FEC00A6300A128A15CF240A128A15752E0A12E7
:041FFC008A1100281E
:08400000FF3FFF3FFF3FFF3FC0
:02400E00FB3F76
:00000001FF
